{
  "contractName": "Apparel",
  "abi": [
    {
      "constant": true,
      "inputs": [
        {
          "name": "",
          "type": "uint256"
        }
      ],
      "name": "customer",
      "outputs": [
        {
          "name": "",
          "type": "address"
        }
      ],
      "payable": false,
      "stateMutability": "view",
      "type": "function"
    },
    {
      "constant": false,
      "inputs": [
        {
          "name": "customerId",
          "type": "uint256"
        }
      ],
      "name": "adopt",
      "outputs": [
        {
          "name": "",
          "type": "uint256"
        }
      ],
      "payable": false,
      "stateMutability": "nonpayable",
      "type": "function"
    },
    {
      "constant": true,
      "inputs": [],
      "name": "getCustomer",
      "outputs": [
        {
          "name": "",
          "type": "address[16]"
        }
      ],
      "payable": false,
      "stateMutability": "view",
      "type": "function"
    }
  ],
  "bytecode": "0x608060405234801561001057600080fd5b506102d8806100206000396000f300608060405260043610610057576000357c0100000000000000000000000000000000000000000000000000000000900463ffffffff168063650d993b1461005c5780638588b2c5146100af578063a22cd09f146100f0575b600080fd5b34801561006857600080fd5b5061007161015d565b6040518082601060200280838360005b8381101561009c578082015181840152602081019050610081565b5050505090500191505060405180910390f35b3480156100bb57600080fd5b506100da600480360381019080803590602001909291905050506101de565b6040518082815260200191505060405180910390f35b3480156100fc57600080fd5b5061011b60048036038101908080359060200190929190505050610253565b604051808273ffffffffffffffffffffffffffffffffffffffff1673ffffffffffffffffffffffffffffffffffffffff16815260200191505060405180910390f35b610165610288565b60006010806020026040519081016040528092919082601080156101d4576020028201915b8160009054906101000a900473ffffffffffffffffffffffffffffffffffffffff1673ffffffffffffffffffffffffffffffffffffffff168152602001906001019080831161018a575b5050505050905090565b60008082101580156101f15750600f8211155b15156101fc57600080fd5b3360008360108110151561020c57fe5b0160006101000a81548173ffffffffffffffffffffffffffffffffffffffff021916908373ffffffffffffffffffffffffffffffffffffffff160217905550819050919050565b60008160108110151561026257fe5b016000915054906101000a900473ffffffffffffffffffffffffffffffffffffffff1681565b610200604051908101604052806010906020820280388339808201915050905050905600a165627a7a72305820a5bfaf59141251317e46d39925f8b47e82cb7bd487761370467121b700fbae310029",
  "source": "pragma solidity ^0.4.17;\r\n\r\ncontract Apparel {\r\naddress[16] public customer;\r\n\r\n// apparel purchase\r\nfunction adopt(uint customerId) public returns (uint) {\r\n  require(customerId >= 0 && customerId <= 15);\r\n\r\n  customer[customerId] = msg.sender;\r\n\r\n  return customerId;\r\n}\r\n// Retrieving the customer\r\nfunction getCustomer() public view returns (address[16]) {\r\n  return customer;\r\n}\r\n}",
  "sourcePath": "C:\\users\\sherlock\\bazar\\contracts\\Apparel.sol",
  "compiler": {
    "name": "solc",
    "version": "0.4.24+commit.e67f0147.Emscripten.clang"
  },
  "schemaVersion": "2.0.1",
  "updatedAt": "2018-08-20T12:15:04.546Z"
}